{
    "hash": "0000000000120504b3629cd9be99585eb5ae3be3a273f36d8791002caf0fc1d2",
    "confirmations": 95,
    "strippedsize": 156375,
    "size": 279122,
    "weight": 748247,
    "height": 2582657,
    "version": 536895488,
    "versionHex": "20006000",
    "merkleroot": "38250a44321107325d6da5c7af90f4e25a27300d9a8f3c52bc8ece466cc47195",
    "tx": [
        {
            "__test_comment": "transaction to the vault 2N4qEFwruq3zznQs78twskBrNTc6kpq87j1 without memo",
            "hex": "01000000000101bd0f7fefbee41f76f0678f217b8ef0d23d77037dc9433b757c88ba8b562d848f010000002322002046fbc84ccf1163f3556e59cd98778897f00fc898816106efd096b68fa4361b29ffffffff02102700000000000017a9147f17c07273e76cdd381c2d64b2739c770e9b390887cc3d00000000000017a9140872c5adfb84ba69c97e9298954f61b9706cae4e87040047304402202a02c91ad3e046b924166f451a6fdf7f72fdaca63d338ff9aba3465537553bff0220478e20adc238999354275aa6665bcdd09538834d42eadcbd24d10ea763b4176901473044022059fcb64ef800d07d3ec383fcfad5331e1335a49e786094426049ea4f0fe99694022046669e4fe71dff08928e031bf801718be26b515b1fafc808a220d01dad3f2d4401475221027299b68fa5a810b23dffdc44a9c618da489f55da55d985d39fd06205f74e03872103cad331ece1c0d820bab125237e04536cb5021f1a9bf8a5ae36a82529c98c629952ae00000000",
            "txid": "f395b2cc8551aff25fe8d61fec159a6b93d29b9ff56a68c9d29df99a864fd74c",
            "hash": "ef4cd511c64834bde624000b94110c9f184388566a97d68d355339294a72dadf",
            "size": 370,
            "vsize": 205,
            "weight": 820,
            "version": 1,
            "locktime": 0,
            "vin": [
                {
                    "txid": "8f842d568bba887c753b43c97d03773dd2f08e7b218f67f0761fe4beef7f0fbd",
                    "vout": 1,
                    "scriptSig": {
                        "asm": "002046fbc84ccf1163f3556e59cd98778897f00fc898816106efd096b68fa4361b29",
                        "hex": "22002046fbc84ccf1163f3556e59cd98778897f00fc898816106efd096b68fa4361b29"
                    },
                    "txinwitness": [
                        "",
                        "304402202a02c91ad3e046b924166f451a6fdf7f72fdaca63d338ff9aba3465537553bff0220478e20adc238999354275aa6665bcdd09538834d42eadcbd24d10ea763b4176901",
                        "3044022059fcb64ef800d07d3ec383fcfad5331e1335a49e786094426049ea4f0fe99694022046669e4fe71dff08928e031bf801718be26b515b1fafc808a220d01dad3f2d4401",
                        "5221027299b68fa5a810b23dffdc44a9c618da489f55da55d985d39fd06205f74e03872103cad331ece1c0d820bab125237e04536cb5021f1a9bf8a5ae36a82529c98c629952ae"
                    ],
                    "sequence": 4294967295
                }
            ],
            "vout": [
                {
                    "value": 0.0001,
                    "n": 0,
                    "scriptPubKey": {
                        "asm": "OP_HASH160 7f17c07273e76cdd381c2d64b2739c770e9b3908 OP_EQUAL",
                        "hex": "a9147f17c07273e76cdd381c2d64b2739c770e9b390887",
                        "type": "scripthash"
                    }
                },
                {
                    "value": 0.0001582,
                    "n": 1,
                    "scriptPubKey": {
                        "asm": "OP_HASH160 0872c5adfb84ba69c97e9298954f61b9706cae4e OP_EQUAL",
                        "hex": "a9140872c5adfb84ba69c97e9298954f61b9706cae4e87",
                        "type": "scripthash"
                    }
                }
            ]
        },
        {
            "__test_comment": "transaction to the vault 2N4qEFwruq3zznQs78twskBrNTc6kpq87j1 with malformed memo 2N4qEFwruq3zznQs78twskBrNTc6kpq87j1",
            "hex": "01000000000101bd0f7fefbee41f76f0678f217b8ef0d23d77037dc9433b757c88ba8b562d848f010000002322002046fbc84ccf1163f3556e59cd98778897f00fc898816106efd096b68fa4361b29ffffffff02102700000000000017a9147f17c07273e76cdd381c2d64b2739c770e9b390887cc3d00000000000017a9140872c5adfb84ba69c97e9298954f61b9706cae4e87040047304402202a02c91ad3e046b924166f451a6fdf7f72fdaca63d338ff9aba3465537553bff0220478e20adc238999354275aa6665bcdd09538834d42eadcbd24d10ea763b4176901473044022059fcb64ef800d07d3ec383fcfad5331e1335a49e786094426049ea4f0fe99694022046669e4fe71dff08928e031bf801718be26b515b1fafc808a220d01dad3f2d4401475221027299b68fa5a810b23dffdc44a9c618da489f55da55d985d39fd06205f74e03872103cad331ece1c0d820bab125237e04536cb5021f1a9bf8a5ae36a82529c98c629952ae00000000",
            "txid": "f395b2cc8551aff25fe8d61fec159a6b93d29b9ff56a68c9d29df99a864fd74c",
            "hash": "ef4cd511c64834bde624000b94110c9f184388566a97d68d355339294a72dadf",
            "size": 370,
            "vsize": 205,
            "weight": 820,
            "version": 1,
            "locktime": 0,
            "vin": [
                {
                    "txid": "8f842d568bba887c753b43c97d03773dd2f08e7b218f67f0761fe4beef7f0fbd",
                    "vout": 1,
                    "scriptSig": {
                        "asm": "002046fbc84ccf1163f3556e59cd98778897f00fc898816106efd096b68fa4361b29",
                        "hex": "22002046fbc84ccf1163f3556e59cd98778897f00fc898816106efd096b68fa4361b29"
                    },
                    "txinwitness": [
                        "",
                        "304402202a02c91ad3e046b924166f451a6fdf7f72fdaca63d338ff9aba3465537553bff0220478e20adc238999354275aa6665bcdd09538834d42eadcbd24d10ea763b4176901",
                        "3044022059fcb64ef800d07d3ec383fcfad5331e1335a49e786094426049ea4f0fe99694022046669e4fe71dff08928e031bf801718be26b515b1fafc808a220d01dad3f2d4401",
                        "5221027299b68fa5a810b23dffdc44a9c618da489f55da55d985d39fd06205f74e03872103cad331ece1c0d820bab125237e04536cb5021f1a9bf8a5ae36a82529c98c629952ae"
                    ],
                    "sequence": 4294967295
                }
            ],
            "vout": [
                {
                    "value": 0.0001,
                    "n": 0,
                    "scriptPubKey": {
                        "asm": "OP_HASH160 7f17c07273e76cdd381c2d64b2739c770e9b3908 OP_EQUAL",
                        "hex": "a9147f17c07273e76cdd381c2d64b2739c770e9b390887",
                        "type": "scripthash"
                    }
                },
                {
                    "value": 0.0001582,
                    "n": 1,
                    "scriptPubKey": {
                        "asm": "OP_HASH160 0872c5adfb84ba69c97e9298954f61b9706cae4e OP_EQUAL",
                        "hex": "a9140872c5adfb84ba69c97e9298954f61b9706cae4e87",
                        "type": "scripthash"
                    }
                },
                {
                    "value": 0.0,
                    "n": 2,
                    "scriptPubKey": {
                        "asm": "OP_RETURN 324E3471454677727571337A7A6E517337387477736B42724E5463366B707138376A31",
                        "hex": "6a23324e3471454677727571337a7a6e517337387477736b42724e5463366b707138376a31",
                        "type": "nulldata"
                    }
                }
            ]
        },
        {
            "__test_comment": "transaction to the vault 2N4qEFwruq3zznQs78twskBrNTc6kpq87j1 with memo osmo13g23crzfp99xg28nh0j4em4nsqnaur02nek2wt, but with zero tokens amount",
            "hex": "01000000000101bd0f7fefbee41f76f0678f217b8ef0d23d77037dc9433b757c88ba8b562d848f010000002322002046fbc84ccf1163f3556e59cd98778897f00fc898816106efd096b68fa4361b29ffffffff02102700000000000017a9147f17c07273e76cdd381c2d64b2739c770e9b390887cc3d00000000000017a9140872c5adfb84ba69c97e9298954f61b9706cae4e87040047304402202a02c91ad3e046b924166f451a6fdf7f72fdaca63d338ff9aba3465537553bff0220478e20adc238999354275aa6665bcdd09538834d42eadcbd24d10ea763b4176901473044022059fcb64ef800d07d3ec383fcfad5331e1335a49e786094426049ea4f0fe99694022046669e4fe71dff08928e031bf801718be26b515b1fafc808a220d01dad3f2d4401475221027299b68fa5a810b23dffdc44a9c618da489f55da55d985d39fd06205f74e03872103cad331ece1c0d820bab125237e04536cb5021f1a9bf8a5ae36a82529c98c629952ae00000000",
            "txid": "f395b2cc8551aff25fe8d61fec159a6b93d29b9ff56a68c9d29df99a864fd74c",
            "hash": "ef4cd511c64834bde624000b94110c9f184388566a97d68d355339294a72dadf",
            "size": 370,
            "vsize": 205,
            "weight": 820,
            "version": 1,
            "locktime": 0,
            "vin": [
                {
                    "txid": "8f842d568bba887c753b43c97d03773dd2f08e7b218f67f0761fe4beef7f0fbd",
                    "vout": 1,
                    "scriptSig": {
                        "asm": "002046fbc84ccf1163f3556e59cd98778897f00fc898816106efd096b68fa4361b29",
                        "hex": "22002046fbc84ccf1163f3556e59cd98778897f00fc898816106efd096b68fa4361b29"
                    },
                    "txinwitness": [
                        "",
                        "304402202a02c91ad3e046b924166f451a6fdf7f72fdaca63d338ff9aba3465537553bff0220478e20adc238999354275aa6665bcdd09538834d42eadcbd24d10ea763b4176901",
                        "3044022059fcb64ef800d07d3ec383fcfad5331e1335a49e786094426049ea4f0fe99694022046669e4fe71dff08928e031bf801718be26b515b1fafc808a220d01dad3f2d4401",
                        "5221027299b68fa5a810b23dffdc44a9c618da489f55da55d985d39fd06205f74e03872103cad331ece1c0d820bab125237e04536cb5021f1a9bf8a5ae36a82529c98c629952ae"
                    ],
                    "sequence": 4294967295
                }
            ],
            "vout": [
                {
                    "value": 0.0,
                    "n": 0,
                    "scriptPubKey": {
                        "asm": "OP_HASH160 7f17c07273e76cdd381c2d64b2739c770e9b3908 OP_EQUAL",
                        "hex": "a9147f17c07273e76cdd381c2d64b2739c770e9b390887",
                        "type": "scripthash"
                    }
                },
                {
                    "value": 0.0,
                    "n": 1,
                    "scriptPubKey": {
                        "asm": "OP_HASH160 0872c5adfb84ba69c97e9298954f61b9706cae4e OP_EQUAL",
                        "hex": "a9140872c5adfb84ba69c97e9298954f61b9706cae4e87",
                        "type": "scripthash"
                    }
                },
                {
                    "value": 0.0,
                    "n": 2,
                    "scriptPubKey": {
                        "asm": "OP_RETURN 6f736d6f313367323363727a66703939786732386e68306a34656d346e73716e61757230326e656b327774",
                        "hex": "6a2b6f736d6f313367323363727a66703939786732386e68306a34656d346e73716e61757230326e656b327774",
                        "type": "nulldata"
                    }
                }
            ]
        },
        {
            "__test_comment": "invalid Vout script type for output tx",
            "hex": "01000000000101bd0f7fefbee41f76f0678f217b8ef0d23d77037dc9433b757c88ba8b562d848f010000002322002046fbc84ccf1163f3556e59cd98778897f00fc898816106efd096b68fa4361b29ffffffff02102700000000000017a9147f17c07273e76cdd381c2d64b2739c770e9b390887cc3d00000000000017a9140872c5adfb84ba69c97e9298954f61b9706cae4e87040047304402202a02c91ad3e046b924166f451a6fdf7f72fdaca63d338ff9aba3465537553bff0220478e20adc238999354275aa6665bcdd09538834d42eadcbd24d10ea763b4176901473044022059fcb64ef800d07d3ec383fcfad5331e1335a49e786094426049ea4f0fe99694022046669e4fe71dff08928e031bf801718be26b515b1fafc808a220d01dad3f2d4401475221027299b68fa5a810b23dffdc44a9c618da489f55da55d985d39fd06205f74e03872103cad331ece1c0d820bab125237e04536cb5021f1a9bf8a5ae36a82529c98c629952ae00000000",
            "txid": "f395b2cc8551aff25fe8d61fec159a6b93d29b9ff56a68c9d29df99a864fd74c",
            "hash": "ef4cd511c64834bde624000b94110c9f184388566a97d68d355339294a72dadf",
            "size": 370,
            "vsize": 205,
            "weight": 820,
            "version": 1,
            "locktime": 0,
            "vin": [
                {
                    "txid": "8f842d568bba887c753b43c97d03773dd2f08e7b218f67f0761fe4beef7f0fbd",
                    "vout": 1,
                    "scriptSig": {
                        "asm": "002046fbc84ccf1163f3556e59cd98778897f00fc898816106efd096b68fa4361b29",
                        "hex": "22002046fbc84ccf1163f3556e59cd98778897f00fc898816106efd096b68fa4361b29"
                    },
                    "txinwitness": [
                        "",
                        "304402202a02c91ad3e046b924166f451a6fdf7f72fdaca63d338ff9aba3465537553bff0220478e20adc238999354275aa6665bcdd09538834d42eadcbd24d10ea763b4176901",
                        "3044022059fcb64ef800d07d3ec383fcfad5331e1335a49e786094426049ea4f0fe99694022046669e4fe71dff08928e031bf801718be26b515b1fafc808a220d01dad3f2d4401",
                        "5221027299b68fa5a810b23dffdc44a9c618da489f55da55d985d39fd06205f74e03872103cad331ece1c0d820bab125237e04536cb5021f1a9bf8a5ae36a82529c98c629952ae"
                    ],
                    "sequence": 4294967295
                }
            ],
            "vout": [
                {
                    "value": 0.0001,
                    "n": 0,
                    "scriptPubKey": {
                        "asm": "OP_HASH160 7f17c07273e76cdd381c2d64b2739c770e9b3908 OP_EQUAL",
                        "hex": "a9147f17c07273e76cdd381c2d64b2739c770e9b390887",
                        "type": "nulldata"
                    }
                },
                {
                    "value": 0.0001582,
                    "n": 1,
                    "scriptPubKey": {
                        "asm": "OP_HASH160 0872c5adfb84ba69c97e9298954f61b9706cae4e OP_EQUAL",
                        "hex": "a9140872c5adfb84ba69c97e9298954f61b9706cae4e87",
                        "type": "scripthash"
                    }
                },
                {
                    "value": 0.0,
                    "n": 2,
                    "scriptPubKey": {
                        "asm": "OP_RETURN 6f736d6f313367323363727a66703939786732386e68306a34656d346e73716e61757230326e656b327774",
                        "hex": "6a2b6f736d6f313367323363727a66703939786732386e68306a34656d346e73716e61757230326e656b327774",
                        "type": "nulldata"
                    }
                }
            ]
        },
        {
            "__test_comment": "invalid Vout script type for memo",
            "hex": "01000000000101bd0f7fefbee41f76f0678f217b8ef0d23d77037dc9433b757c88ba8b562d848f010000002322002046fbc84ccf1163f3556e59cd98778897f00fc898816106efd096b68fa4361b29ffffffff02102700000000000017a9147f17c07273e76cdd381c2d64b2739c770e9b390887cc3d00000000000017a9140872c5adfb84ba69c97e9298954f61b9706cae4e87040047304402202a02c91ad3e046b924166f451a6fdf7f72fdaca63d338ff9aba3465537553bff0220478e20adc238999354275aa6665bcdd09538834d42eadcbd24d10ea763b4176901473044022059fcb64ef800d07d3ec383fcfad5331e1335a49e786094426049ea4f0fe99694022046669e4fe71dff08928e031bf801718be26b515b1fafc808a220d01dad3f2d4401475221027299b68fa5a810b23dffdc44a9c618da489f55da55d985d39fd06205f74e03872103cad331ece1c0d820bab125237e04536cb5021f1a9bf8a5ae36a82529c98c629952ae00000000",
            "txid": "f395b2cc8551aff25fe8d61fec159a6b93d29b9ff56a68c9d29df99a864fd74c",
            "hash": "ef4cd511c64834bde624000b94110c9f184388566a97d68d355339294a72dadf",
            "size": 370,
            "vsize": 205,
            "weight": 820,
            "version": 1,
            "locktime": 0,
            "vin": [
                {
                    "txid": "8f842d568bba887c753b43c97d03773dd2f08e7b218f67f0761fe4beef7f0fbd",
                    "vout": 1,
                    "scriptSig": {
                        "asm": "002046fbc84ccf1163f3556e59cd98778897f00fc898816106efd096b68fa4361b29",
                        "hex": "22002046fbc84ccf1163f3556e59cd98778897f00fc898816106efd096b68fa4361b29"
                    },
                    "txinwitness": [
                        "",
                        "304402202a02c91ad3e046b924166f451a6fdf7f72fdaca63d338ff9aba3465537553bff0220478e20adc238999354275aa6665bcdd09538834d42eadcbd24d10ea763b4176901",
                        "3044022059fcb64ef800d07d3ec383fcfad5331e1335a49e786094426049ea4f0fe99694022046669e4fe71dff08928e031bf801718be26b515b1fafc808a220d01dad3f2d4401",
                        "5221027299b68fa5a810b23dffdc44a9c618da489f55da55d985d39fd06205f74e03872103cad331ece1c0d820bab125237e04536cb5021f1a9bf8a5ae36a82529c98c629952ae"
                    ],
                    "sequence": 4294967295
                }
            ],
            "vout": [
                {
                    "value": 0.0001,
                    "n": 0,
                    "scriptPubKey": {
                        "asm": "OP_HASH160 7f17c07273e76cdd381c2d64b2739c770e9b3908 OP_EQUAL",
                        "hex": "a9147f17c07273e76cdd381c2d64b2739c770e9b390887",
                        "type": "scripthash"
                    }
                },
                {
                    "value": 0.0001582,
                    "n": 1,
                    "scriptPubKey": {
                        "asm": "OP_HASH160 0872c5adfb84ba69c97e9298954f61b9706cae4e OP_EQUAL",
                        "hex": "a9140872c5adfb84ba69c97e9298954f61b9706cae4e87",
                        "type": "scripthash"
                    }
                },
                {
                    "value": 0.0,
                    "n": 2,
                    "scriptPubKey": {
                        "asm": "OP_RETURN 6f736d6f313367323363727a66703939786732386e68306a34656d346e73716e61757230326e656b327774",
                        "hex": "6a2b6f736d6f313367323363727a66703939786732386e68306a34656d346e73716e61757230326e656b327774",
                        "type": "scripthash"
                    }
                }
            ]
        },
        {
            "__test_comment": "invalid output value amount",
            "hex": "01000000000101bd0f7fefbee41f76f0678f217b8ef0d23d77037dc9433b757c88ba8b562d848f010000002322002046fbc84ccf1163f3556e59cd98778897f00fc898816106efd096b68fa4361b29ffffffff02102700000000000017a9147f17c07273e76cdd381c2d64b2739c770e9b390887cc3d00000000000017a9140872c5adfb84ba69c97e9298954f61b9706cae4e87040047304402202a02c91ad3e046b924166f451a6fdf7f72fdaca63d338ff9aba3465537553bff0220478e20adc238999354275aa6665bcdd09538834d42eadcbd24d10ea763b4176901473044022059fcb64ef800d07d3ec383fcfad5331e1335a49e786094426049ea4f0fe99694022046669e4fe71dff08928e031bf801718be26b515b1fafc808a220d01dad3f2d4401475221027299b68fa5a810b23dffdc44a9c618da489f55da55d985d39fd06205f74e03872103cad331ece1c0d820bab125237e04536cb5021f1a9bf8a5ae36a82529c98c629952ae00000000",
            "txid": "f395b2cc8551aff25fe8d61fec159a6b93d29b9ff56a68c9d29df99a864fd74c",
            "hash": "ef4cd511c64834bde624000b94110c9f184388566a97d68d355339294a72dadf",
            "size": 370,
            "vsize": 205,
            "weight": 820,
            "version": 1,
            "locktime": 0,
            "vin": [
                {
                    "txid": "8f842d568bba887c753b43c97d03773dd2f08e7b218f67f0761fe4beef7f0fbd",
                    "vout": 1,
                    "scriptSig": {
                        "asm": "002046fbc84ccf1163f3556e59cd98778897f00fc898816106efd096b68fa4361b29",
                        "hex": "22002046fbc84ccf1163f3556e59cd98778897f00fc898816106efd096b68fa4361b29"
                    },
                    "txinwitness": [
                        "",
                        "304402202a02c91ad3e046b924166f451a6fdf7f72fdaca63d338ff9aba3465537553bff0220478e20adc238999354275aa6665bcdd09538834d42eadcbd24d10ea763b4176901",
                        "3044022059fcb64ef800d07d3ec383fcfad5331e1335a49e786094426049ea4f0fe99694022046669e4fe71dff08928e031bf801718be26b515b1fafc808a220d01dad3f2d4401",
                        "5221027299b68fa5a810b23dffdc44a9c618da489f55da55d985d39fd06205f74e03872103cad331ece1c0d820bab125237e04536cb5021f1a9bf8a5ae36a82529c98c629952ae"
                    ],
                    "sequence": 4294967295
                }
            ],
            "vout": [
                {
                    "value": null,
                    "n": 0,
                    "scriptPubKey": {
                        "asm": "OP_HASH160 7f17c07273e76cdd381c2d64b2739c770e9b3908 OP_EQUAL",
                        "hex": "a9147f17c07273e76cdd381c2d64b2739c770e9b390887",
                        "type": "scripthash"
                    }
                },
                {
                    "value": 0.0001582,
                    "n": 1,
                    "scriptPubKey": {
                        "asm": "OP_HASH160 0872c5adfb84ba69c97e9298954f61b9706cae4e OP_EQUAL",
                        "hex": "a9140872c5adfb84ba69c97e9298954f61b9706cae4e87",
                        "type": "scripthash"
                    }
                },
                {
                    "value": 0.0,
                    "n": 2,
                    "scriptPubKey": {
                        "asm": "OP_RETURN 6f736d6f313367323363727a66703939786732386e68306a34656d346e73716e61757230326e656b327774",
                        "hex": "6a2b6f736d6f313367323363727a66703939786732386e68306a34656d346e73716e61757230326e656b327774",
                        "type": "nulldata"
                    }
                }
            ]
        },
        {
            "__test_comment": "unrelated transaction",
            "hex": "020000000001010000000000000000000000000000000000000000000000000000000000000000ffffffff2303736827044d82f9654d65726d61696465722046545721010001e167ee2e0000000000ffffffff032202000000000000225120acf3ff3ad88d47dc0ac7c564eb53092b6bee2947a8cd329c7090e157442a85f29bd31c0000000000160014c035e789d9efffa10aa92e93f48f29b8cfb224c20000000000000000266a24aa21a9ede0e2d47bfe8573127a173413e5fde153a26c2bcf89819d8982bf3601c7c6e63a0120000000000000000000000000000000000000000000000000000000000000000000000000",
            "txid": "31cc99caabaac37e433ba75ad82d67f4dd9f161a940f38d99c9da95202822814",
            "hash": "bb928d1961dab347d52194bc9e2988348cca16b3daffc9d835a241b73fa05be4",
            "size": 243,
            "vsize": 216,
            "weight": 864,
            "version": 2,
            "locktime": 0,
            "vin": [
                {
                    "coinbase": "03736827044d82f9654d65726d61696465722046545721010001e167ee2e0000000000",
                    "sequence": 4294967295
                }
            ],
            "vout": [
                {
                    "value": 0.00000546,
                    "n": 0,
                    "scriptPubKey": {
                        "asm": "1 acf3ff3ad88d47dc0ac7c564eb53092b6bee2947a8cd329c7090e157442a85f2",
                        "hex": "5120acf3ff3ad88d47dc0ac7c564eb53092b6bee2947a8cd329c7090e157442a85f2",
                        "reqSigs": 1,
                        "type": "witness_v1_taproot",
                        "addresses": [
                            "tb1p4nel7wkc34raczk8c4jwk5cf9d47u2284rxn98rsjrs4w3p2sheqvjmfdh"
                        ]
                    }
                },
                {
                    "value": 0.01889179,
                    "n": 1,
                    "scriptPubKey": {
                        "asm": "0 c035e789d9efffa10aa92e93f48f29b8cfb224c2",
                        "hex": "0014c035e789d9efffa10aa92e93f48f29b8cfb224c2",
                        "reqSigs": 1,
                        "type": "witness_v0_keyhash",
                        "addresses": [
                            "tb1qcq670zweall6zz4f96flfrefhr8myfxz9ll9l2"
                        ]
                    }
                },
                {
                    "value": 0.0,
                    "n": 2,
                    "scriptPubKey": {
                        "asm": "OP_RETURN aa21a9ede0e2d47bfe8573127a173413e5fde153a26c2bcf89819d8982bf3601c7c6e63a",
                        "hex": "6a24aa21a9ede0e2d47bfe8573127a173413e5fde153a26c2bcf89819d8982bf3601c7c6e63a",
                        "type": "nulldata"
                    }
                }
            ],
            "blockhash": "000000000000001498a24dcbfc717d131d0e9e61101403872745f1db1a5854b9",
            "confirmations": 1,
            "time": 1710850637,
            "blocktime": 1710850637
        },
        {
            "__test_comment": "token amount below threshold",
            "hex": "01000000000101bd0f7fefbee41f76f0678f217b8ef0d23d77037dc9433b757c88ba8b562d848f010000002322002046fbc84ccf1163f3556e59cd98778897f00fc898816106efd096b68fa4361b29ffffffff02102700000000000017a9147f17c07273e76cdd381c2d64b2739c770e9b390887cc3d00000000000017a9140872c5adfb84ba69c97e9298954f61b9706cae4e87040047304402202a02c91ad3e046b924166f451a6fdf7f72fdaca63d338ff9aba3465537553bff0220478e20adc238999354275aa6665bcdd09538834d42eadcbd24d10ea763b4176901473044022059fcb64ef800d07d3ec383fcfad5331e1335a49e786094426049ea4f0fe99694022046669e4fe71dff08928e031bf801718be26b515b1fafc808a220d01dad3f2d4401475221027299b68fa5a810b23dffdc44a9c618da489f55da55d985d39fd06205f74e03872103cad331ece1c0d820bab125237e04536cb5021f1a9bf8a5ae36a82529c98c629952ae00000000",
            "txid": "f395b2cc8551aff25fe8d61fec159a6b93d29b9ff56a68c9d29df99a864fd74c",
            "hash": "ef4cd511c64834bde624000b94110c9f184388566a97d68d355339294a72dadf",
            "size": 370,
            "vsize": 205,
            "weight": 820,
            "version": 1,
            "locktime": 0,
            "vin": [
                {
                    "txid": "8f842d568bba887c753b43c97d03773dd2f08e7b218f67f0761fe4beef7f0fbd",
                    "vout": 1,
                    "scriptSig": {
                        "asm": "002046fbc84ccf1163f3556e59cd98778897f00fc898816106efd096b68fa4361b29",
                        "hex": "22002046fbc84ccf1163f3556e59cd98778897f00fc898816106efd096b68fa4361b29"
                    },
                    "txinwitness": [
                        "",
                        "304402202a02c91ad3e046b924166f451a6fdf7f72fdaca63d338ff9aba3465537553bff0220478e20adc238999354275aa6665bcdd09538834d42eadcbd24d10ea763b4176901",
                        "3044022059fcb64ef800d07d3ec383fcfad5331e1335a49e786094426049ea4f0fe99694022046669e4fe71dff08928e031bf801718be26b515b1fafc808a220d01dad3f2d4401",
                        "5221027299b68fa5a810b23dffdc44a9c618da489f55da55d985d39fd06205f74e03872103cad331ece1c0d820bab125237e04536cb5021f1a9bf8a5ae36a82529c98c629952ae"
                    ],
                    "sequence": 4294967295
                }
            ],
            "vout": [
                {
                    "value": 0.000001,
                    "n": 0,
                    "scriptPubKey": {
                        "asm": "OP_HASH160 7f17c07273e76cdd381c2d64b2739c770e9b3908 OP_EQUAL",
                        "hex": "a9147f17c07273e76cdd381c2d64b2739c770e9b390887",
                        "type": "scripthash"
                    }
                },
                {
                    "value": 0.0001582,
                    "n": 1,
                    "scriptPubKey": {
                        "asm": "OP_HASH160 0872c5adfb84ba69c97e9298954f61b9706cae4e OP_EQUAL",
                        "hex": "a9140872c5adfb84ba69c97e9298954f61b9706cae4e87",
                        "type": "scripthash"
                    }
                },
                {
                    "value": 0.0,
                    "n": 2,
                    "scriptPubKey": {
                        "asm": "OP_RETURN 6f736d6f313367323363727a66703939786732386e68306a34656d346e73716e61757230326e656b327774",
                        "hex": "6a2b6f736d6f313367323363727a66703939786732386e68306a34656d346e73716e61757230326e656b327774",
                        "type": "nulldata"
                    }
                }
            ]
        },
        {
            "__test_comment": "valid transaction to the vault 2N4qEFwruq3zznQs78twskBrNTc6kpq87j1 with memo osmo13g23crzfp99xg28nh0j4em4nsqnaur02nek2wt",
            "hex": "01000000000101bd0f7fefbee41f76f0678f217b8ef0d23d77037dc9433b757c88ba8b562d848f010000002322002046fbc84ccf1163f3556e59cd98778897f00fc898816106efd096b68fa4361b29ffffffff02102700000000000017a9147f17c07273e76cdd381c2d64b2739c770e9b390887cc3d00000000000017a9140872c5adfb84ba69c97e9298954f61b9706cae4e87040047304402202a02c91ad3e046b924166f451a6fdf7f72fdaca63d338ff9aba3465537553bff0220478e20adc238999354275aa6665bcdd09538834d42eadcbd24d10ea763b4176901473044022059fcb64ef800d07d3ec383fcfad5331e1335a49e786094426049ea4f0fe99694022046669e4fe71dff08928e031bf801718be26b515b1fafc808a220d01dad3f2d4401475221027299b68fa5a810b23dffdc44a9c618da489f55da55d985d39fd06205f74e03872103cad331ece1c0d820bab125237e04536cb5021f1a9bf8a5ae36a82529c98c629952ae00000000",
            "txid": "f395b2cc8551aff25fe8d61fec159a6b93d29b9ff56a68c9d29df99a864fd74c",
            "hash": "ef4cd511c64834bde624000b94110c9f184388566a97d68d355339294a72dadf",
            "size": 370,
            "vsize": 205,
            "weight": 820,
            "version": 1,
            "locktime": 0,
            "vin": [
                {
                    "txid": "8f842d568bba887c753b43c97d03773dd2f08e7b218f67f0761fe4beef7f0fbd",
                    "vout": 1,
                    "scriptSig": {
                        "asm": "002046fbc84ccf1163f3556e59cd98778897f00fc898816106efd096b68fa4361b29",
                        "hex": "22002046fbc84ccf1163f3556e59cd98778897f00fc898816106efd096b68fa4361b29"
                    },
                    "txinwitness": [
                        "",
                        "304402202a02c91ad3e046b924166f451a6fdf7f72fdaca63d338ff9aba3465537553bff0220478e20adc238999354275aa6665bcdd09538834d42eadcbd24d10ea763b4176901",
                        "3044022059fcb64ef800d07d3ec383fcfad5331e1335a49e786094426049ea4f0fe99694022046669e4fe71dff08928e031bf801718be26b515b1fafc808a220d01dad3f2d4401",
                        "5221027299b68fa5a810b23dffdc44a9c618da489f55da55d985d39fd06205f74e03872103cad331ece1c0d820bab125237e04536cb5021f1a9bf8a5ae36a82529c98c629952ae"
                    ],
                    "sequence": 4294967295
                }
            ],
            "vout": [
                {
                    "value": 0.0001,
                    "n": 0,
                    "scriptPubKey": {
                        "asm": "OP_HASH160 7f17c07273e76cdd381c2d64b2739c770e9b3908 OP_EQUAL",
                        "hex": "a9147f17c07273e76cdd381c2d64b2739c770e9b390887",
                        "type": "scripthash"
                    }
                },
                {
                    "value": 0.0001582,
                    "n": 1,
                    "scriptPubKey": {
                        "asm": "OP_HASH160 0872c5adfb84ba69c97e9298954f61b9706cae4e OP_EQUAL",
                        "hex": "a9140872c5adfb84ba69c97e9298954f61b9706cae4e87",
                        "type": "scripthash"
                    }
                },
                {
                    "value": 0.0,
                    "n": 2,
                    "scriptPubKey": {
                        "asm": "OP_RETURN 6f736d6f313367323363727a66703939786732386e68306a34656d346e73716e61757230326e656b327774",
                        "hex": "6a2b6f736d6f313367323363727a66703939786732386e68306a34656d346e73716e61757230326e656b327774",
                        "type": "nulldata"
                    }
                }
            ]
        }
    ],
    "time": 1710863896,
    "nonce": 4079095042,
    "bits": "1d00ffff",
    "difficulty": 1,
    "previousblockhash": "00000000000000236fcbcaf391f7e7ef07cbe2863e8627552d345268518d2310",
    "nextblockhash": "0000000000000002e4e90f2d018d6093995e2ce089de6a882bd9ddef082135c7"
}